{
  "contractName": "DegreeCertification",
  "abi": [
    {
      "inputs": [],
      "stateMutability": "nonpayable",
      "type": "constructor"
    },
    {
      "anonymous": false,
      "inputs": [
        {
          "indexed": true,
          "internalType": "bytes32",
          "name": "certHash",
          "type": "bytes32"
        },
        {
          "indexed": false,
          "internalType": "string",
          "name": "idNumber",
          "type": "string"
        },
        {
          "indexed": false,
          "internalType": "string",
          "name": "studentID",
          "type": "string"
        },
        {
          "indexed": false,
          "internalType": "string",
          "name": "name",
          "type": "string"
        },
        {
          "indexed": false,
          "internalType": "string",
          "name": "degree",
          "type": "string"
        },
        {
          "indexed": false,
          "internalType": "string",
          "name": "institution",
          "type": "string"
        },
        {
          "indexed": false,
          "internalType": "uint256",
          "name": "dateIssued",
          "type": "uint256"
        },
        {
          "indexed": false,
          "internalType": "string",
          "name": "numberSign",
          "type": "string"
        },
        {
          "indexed": false,
          "internalType": "string",
          "name": "referenceNumber",
          "type": "string"
        }
      ],
      "name": "CertificateIssued",
      "type": "event"
    },
    {
      "anonymous": false,
      "inputs": [
        {
          "indexed": true,
          "internalType": "bytes32",
          "name": "certHash",
          "type": "bytes32"
        }
      ],
      "name": "CertificateRevoked",
      "type": "event"
    },
    {
      "inputs": [],
      "name": "owner",
      "outputs": [
        {
          "internalType": "address",
          "name": "",
          "type": "address"
        }
      ],
      "stateMutability": "view",
      "type": "function"
    },
    {
      "inputs": [
        {
          "internalType": "string",
          "name": "_idNumber",
          "type": "string"
        },
        {
          "internalType": "string",
          "name": "_studentID",
          "type": "string"
        },
        {
          "internalType": "string",
          "name": "_name",
          "type": "string"
        },
        {
          "internalType": "string",
          "name": "_degree",
          "type": "string"
        },
        {
          "internalType": "string",
          "name": "_institution",
          "type": "string"
        },
        {
          "internalType": "uint256",
          "name": "_dateIssued",
          "type": "uint256"
        },
        {
          "internalType": "string",
          "name": "_numberSign",
          "type": "string"
        },
        {
          "internalType": "string",
          "name": "_referenceNumber",
          "type": "string"
        }
      ],
      "name": "issueCertificate",
      "outputs": [
        {
          "internalType": "bytes32",
          "name": "",
          "type": "bytes32"
        }
      ],
      "stateMutability": "nonpayable",
      "type": "function"
    },
    {
      "inputs": [
        {
          "internalType": "bytes32",
          "name": "_certHash",
          "type": "bytes32"
        }
      ],
      "name": "revokeCertificate",
      "outputs": [],
      "stateMutability": "nonpayable",
      "type": "function"
    },
    {
      "inputs": [
        {
          "internalType": "bytes32",
          "name": "_certHash",
          "type": "bytes32"
        }
      ],
      "name": "verifyCertificate",
      "outputs": [
        {
          "internalType": "string",
          "name": "",
          "type": "string"
        },
        {
          "internalType": "string",
          "name": "",
          "type": "string"
        },
        {
          "internalType": "string",
          "name": "",
          "type": "string"
        },
        {
          "internalType": "string",
          "name": "",
          "type": "string"
        },
        {
          "internalType": "string",
          "name": "",
          "type": "string"
        },
        {
          "internalType": "uint256",
          "name": "",
          "type": "uint256"
        },
        {
          "internalType": "string",
          "name": "",
          "type": "string"
        },
        {
          "internalType": "string",
          "name": "",
          "type": "string"
        },
        {
          "internalType": "bool",
          "name": "",
          "type": "bool"
        }
      ],
      "stateMutability": "view",
      "type": "function"
    }
  ],
  "bytecode": "0x608060405234801561001057600080fd5b5033600160006101000a81548173ffffffffffffffffffffffffffffffffffffffff021916908373ffffffffffffffffffffffffffffffffffffffff1602179055506112db806100616000396000f3fe608060405234801561001057600080fd5b506004361061004c5760003560e01c8063850c1768146100515780638da5cb5b146100895780639e2f5028146100a7578063c6cbc52a146100d7575b600080fd5b61006b60048036038101906100669190610afb565b6100f3565b60405161008099989796959493929190610f00565b60405180910390f35b6100916105d9565b60405161009e9190610e1b565b60405180910390f35b6100c160048036038101906100bc9190610b28565b6105ff565b6040516100ce9190610e36565b60405180910390f35b6100f160048036038101906100ec9190610afb565b61086e565b005b606080606080606060006060806000806000808c8152602001908152602001600020604051806101200160405290816000820180546101319061110f565b80601f016020809104026020016040519081016040528092919081815260200182805461015d9061110f565b80156101aa5780601f1061017f576101008083540402835291602001916101aa565b820191906000526020600020905b81548152906001019060200180831161018d57829003601f168201915b505050505081526020016001820180546101c39061110f565b80601f01602080910402602001604051908101604052809291908181526020018280546101ef9061110f565b801561023c5780601f106102115761010080835404028352916020019161023c565b820191906000526020600020905b81548152906001019060200180831161021f57829003601f168201915b505050505081526020016002820180546102559061110f565b80601f01602080910402602001604051908101604052809291908181526020018280546102819061110f565b80156102ce5780601f106102a3576101008083540402835291602001916102ce565b820191906000526020600020905b8154815290600101906020018083116102b157829003601f168201915b505050505081526020016003820180546102e79061110f565b80601f01602080910402602001604051908101604052809291908181526020018280546103139061110f565b80156103605780601f1061033557610100808354040283529160200191610360565b820191906000526020600020905b81548152906001019060200180831161034357829003601f168201915b505050505081526020016004820180546103799061110f565b80601f01602080910402602001604051908101604052809291908181526020018280546103a59061110f565b80156103f25780601f106103c7576101008083540402835291602001916103f2565b820191906000526020600020905b8154815290600101906020018083116103d557829003601f168201915b50505050508152602001600582015481526020016006820180546104159061110f565b80601f01602080910402602001604051908101604052809291908181526020018280546104419061110f565b801561048e5780601f106104635761010080835404028352916020019161048e565b820191906000526020600020905b81548152906001019060200180831161047157829003601f168201915b505050505081526020016007820180546104a79061110f565b80601f01602080910402602001604051908101604052809291908181526020018280546104d39061110f565b80156105205780601f106104f557610100808354040283529160200191610520565b820191906000526020600020905b81548152906001019060200180831161050357829003601f168201915b505050505081526020016008820160009054906101000a900460ff161515151581525050905080610100015161058b576040517f08c379a000000000000000000000000000000000000000000000000000000000815260040161058290610fbe565b60405180910390fd5b806000015181602001518260400151836060015184608001518560a001518660c001518760e00151886101000151995099509950995099509950995099509950509193959799909294969850565b600160009054906101000a900473ffffffffffffffffffffffffffffffffffffffff1681565b6000600160009054906101000a900473ffffffffffffffffffffffffffffffffffffffff1673ffffffffffffffffffffffffffffffffffffffff163373ffffffffffffffffffffffffffffffffffffffff1614610691576040517f08c379a000000000000000000000000000000000000000000000000000000000815260040161068890610fde565b60405180910390fd5b600089898989898989896040516020016106b2989796959493929190610da5565b6040516020818303038152906040528051906020012090506040518061012001604052808b81526020018a815260200189815260200188815260200187815260200186815260200185815260200184815260200160011515815250600080838152602001908152602001600020600082015181600001908051906020019061073b9291906109be565b5060208201518160010190805190602001906107589291906109be565b5060408201518160020190805190602001906107759291906109be565b5060608201518160030190805190602001906107929291906109be565b5060808201518160040190805190602001906107af9291906109be565b5060a0820151816005015560c08201518160060190805190602001906107d69291906109be565b5060e08201518160070190805190602001906107f39291906109be565b506101008201518160080160006101000a81548160ff021916908315150217905550905050807f88f88b76b975d86d4f38c54f8fcee6c0db3f3e358101df970640df5774b1418c8b8b8b8b8b8b8b8b604051610856989796959493929190610e51565b60405180910390a28091505098975050505050505050565b600160009054906101000a900473ffffffffffffffffffffffffffffffffffffffff1673ffffffffffffffffffffffffffffffffffffffff163373ffffffffffffffffffffffffffffffffffffffff16146108fe576040517f08c379a00000000000000000000000000000000000000000000000000000000081526004016108f590610fde565b60405180910390fd5b60008082815260200190815260200160002060080160009054906101000a900460ff16610960576040517f08c379a000000000000000000000000000000000000000000000000000000000815260040161095790610fbe565b60405180910390fd5b600080600083815260200190815260200160002060080160006101000a81548160ff021916908315150217905550807f44d80a438cb4fa3b5aedbe551ce3d9382e37f446917b783e1dee70a03b4180e360405160405180910390a250565b8280546109ca9061110f565b90600052602060002090601f0160209004810192826109ec5760008555610a33565b82601f10610a0557805160ff1916838001178555610a33565b82800160010185558215610a33579182015b82811115610a32578251825591602001919060010190610a17565b5b509050610a409190610a44565b5090565b5b80821115610a5d576000816000905550600101610a45565b5090565b6000610a74610a6f84611023565b610ffe565b905082815260208101848484011115610a9057610a8f6111df565b5b610a9b8482856110cd565b509392505050565b600081359050610ab281611277565b92915050565b600082601f830112610acd57610acc6111da565b5b8135610add848260208601610a61565b91505092915050565b600081359050610af58161128e565b92915050565b600060208284031215610b1157610b106111e9565b5b6000610b1f84828501610aa3565b91505092915050565b600080600080600080600080610100898b031215610b4957610b486111e9565b5b600089013567ffffffffffffffff811115610b6757610b666111e4565b5b610b738b828c01610ab8565b985050602089013567ffffffffffffffff811115610b9457610b936111e4565b5b610ba08b828c01610ab8565b975050604089013567ffffffffffffffff811115610bc157610bc06111e4565b5b610bcd8b828c01610ab8565b965050606089013567ffffffffffffffff811115610bee57610bed6111e4565b5b610bfa8b828c01610ab8565b955050608089013567ffffffffffffffff811115610c1b57610c1a6111e4565b5b610c278b828c01610ab8565b94505060a0610c388b828c01610ae6565b93505060c089013567ffffffffffffffff811115610c5957610c586111e4565b5b610c658b828c01610ab8565b92505060e089013567ffffffffffffffff811115610c8657610c856111e4565b5b610c928b828c01610ab8565b9150509295985092959890939650565b610cab8161107b565b82525050565b610cba8161108d565b82525050565b610cc981611099565b82525050565b6000610cda82611054565b610ce4818561105f565b9350610cf48185602086016110dc565b610cfd816111ee565b840191505092915050565b6000610d1382611054565b610d1d8185611070565b9350610d2d8185602086016110dc565b80840191505092915050565b6000610d4660188361105f565b9150610d51826111ff565b602082019050919050565b6000610d6960268361105f565b9150610d7482611228565b604082019050919050565b610d88816110c3565b82525050565b610d9f610d9a826110c3565b611172565b82525050565b6000610db1828b610d08565b9150610dbd828a610d08565b9150610dc98289610d08565b9150610dd58288610d08565b9150610de18287610d08565b9150610ded8286610d8e565b602082019150610dfd8285610d08565b9150610e098284610d08565b91508190509998505050505050505050565b6000602082019050610e306000830184610ca2565b92915050565b6000602082019050610e4b6000830184610cc0565b92915050565b6000610100820190508181036000830152610e6c818b610ccf565b90508181036020830152610e80818a610ccf565b90508181036040830152610e948189610ccf565b90508181036060830152610ea88188610ccf565b90508181036080830152610ebc8187610ccf565b9050610ecb60a0830186610d7f565b81810360c0830152610edd8185610ccf565b905081810360e0830152610ef18184610ccf565b90509998505050505050505050565b6000610120820190508181036000830152610f1b818c610ccf565b90508181036020830152610f2f818b610ccf565b90508181036040830152610f43818a610ccf565b90508181036060830152610f578189610ccf565b90508181036080830152610f6b8188610ccf565b9050610f7a60a0830187610d7f565b81810360c0830152610f8c8186610ccf565b905081810360e0830152610fa08185610ccf565b9050610fb0610100830184610cb1565b9a9950505050505050505050565b60006020820190508181036000830152610fd781610d39565b9050919050565b60006020820190508181036000830152610ff781610d5c565b9050919050565b6000611008611019565b90506110148282611141565b919050565b6000604051905090565b600067ffffffffffffffff82111561103e5761103d6111ab565b5b611047826111ee565b9050602081019050919050565b600081519050919050565b600082825260208201905092915050565b600081905092915050565b6000611086826110a3565b9050919050565b60008115159050919050565b6000819050919050565b600073ffffffffffffffffffffffffffffffffffffffff82169050919050565b6000819050919050565b82818337600083830152505050565b60005b838110156110fa5780820151818401526020810190506110df565b83811115611109576000848401525b50505050565b6000600282049050600182168061112757607f821691505b6020821081141561113b5761113a61117c565b5b50919050565b61114a826111ee565b810181811067ffffffffffffffff82111715611169576111686111ab565b5b80604052505050565b6000819050919050565b7f4e487b7100000000000000000000000000000000000000000000000000000000600052602260045260246000fd5b7f4e487b7100000000000000000000000000000000000000000000000000000000600052604160045260246000fd5b600080fd5b600080fd5b600080fd5b600080fd5b6000601f19601f8301169050919050565b7f4365727469666963617465206973206e6f742076616c69640000000000000000600082015250565b7f4f6e6c7920746865206f776e65722063616e20706572666f726d20746869732060008201527f616374696f6e0000000000000000000000000000000000000000000000000000602082015250565b61128081611099565b811461128b57600080fd5b50565b611297816110c3565b81146112a257600080fd5b5056fea26469706673582212208b6a0db84a4e46b2d73a88783c884244511c847e879491a04f4cfb87a38291d764736f6c63430008070033",
  "immutableReferences": {},
  "source": "// SPDX-License-Identifier: MIT\npragma solidity ^0.8.7;\n\ncontract DegreeCertification {\n    struct Certificate {\n        \n        string idNumber; // sô cccd\n        string studentID; // Mã sinh viên\n        string name; // Họ tên người được cấp\n        string degree; // Tên văn bằng được cấp\n        string institution; // Cơ sở đào tạo cấp bằng\n        uint256 dateIssued; // Ngày cấp\n        string numberSign; // Số hiệu\n        string referenceNumber; // Số vào sổ\n        bool isValid;\n    }\n\n    mapping(bytes32 => Certificate) private certificates;\n    address public owner;\n\n    event CertificateIssued(bytes32 indexed certHash, string idNumber, string studentID, string name, string degree, string institution, uint256 dateIssued, string numberSign, string referenceNumber);\n    event CertificateRevoked(bytes32 indexed certHash);\n\n    modifier onlyOwner() {\n        require(msg.sender == owner, \"Only the owner can perform this action\");\n        _;\n    }\n\n    constructor() {\n        owner = msg.sender;\n    }\n\n    // Để phát hành chứng chỉ mới.\n    function issueCertificate(string memory _idNumber, string memory _studentID, string memory _name, string memory _degree, string memory _institution, uint256 _dateIssued, string memory _numberSign, string memory _referenceNumber) public onlyOwner returns (bytes32) {\n        bytes32 certHash = keccak256(abi.encodePacked(_idNumber, _studentID, _name, _degree, _institution, _dateIssued, _numberSign, _referenceNumber));\n        certificates[certHash] = Certificate(_idNumber, _studentID, _name, _degree, _institution, _dateIssued, _numberSign, _referenceNumber, true);\n        emit CertificateIssued(certHash, _idNumber, _studentID, _name, _degree, _institution, _dateIssued, _numberSign, _referenceNumber);\n        return certHash;\n    }\n\n    // Để thu hồi chứng chỉ\n    function revokeCertificate(bytes32 _certHash) public onlyOwner {\n        require(certificates[_certHash].isValid, \"Certificate is not valid\");\n        certificates[_certHash].isValid = false;\n        emit CertificateRevoked(_certHash);\n    }\n\n    // Để kiểm tra thông tin chứng chỉ.\n    function verifyCertificate(bytes32 _certHash) public view returns (string memory, string memory, string memory, string memory, string memory, uint256, string memory, string memory, bool) {\n        Certificate memory cert = certificates[_certHash];\n        require(cert.isValid, \"Certificate is not valid\");\n        return (cert.idNumber, cert.studentID, cert.name, cert.degree, cert.institution, cert.dateIssued, cert.numberSign, cert.referenceNumber, cert.isValid);\n    }\n}\n\n",
  "sourcePath": "E:\\DegreeCertification\\contracts\\bsc\\DegreeCertification.sol",
  "compiler": {
    "name": "solc",
    "version": "0.8.7+commit.e28d00a7.Emscripten.clang"
  },
  "schemaVersion": "3.4.16",
  "updatedAt": "2024-08-10T08:17:16.957Z",
  "devdoc": {
    "kind": "dev",
    "methods": {},
    "version": 1
  },
  "userdoc": {
    "kind": "user",
    "methods": {},
    "version": 1
  },
  "db": {
    "callBytecode": {
      "id": "0x55c8cf6900bf6afcd6ee58295605db9e455a04cfcaa819dccc24efaa9acf4a36"
    },
    "createBytecode": {
      "id": "0x73ef77e08e707df5e9cbb305dda75dd017f54c728af637b656ffc11d40122a33"
    },
    "contract": {
      "id": "0xbbe16d5d2dc73b909963fd528c5514aedd8933859c247b7d94ca384f9894f784"
    }
  }
}